:020000041000EA
:1000000000B5324B212058609868022188439860DF
:10001000D860186158612E4B002199600221596106
:100020000121F02299502B49196001219960352056
:1000300000F044F80222904214D00621196600F024
:1000400034F8196E01211966002018661A6600F04E
:100050002CF8196E196E196E052000F02FF8012189
:100060000842F9D1002199601B49196000215960AB
:100070001A491B48016001219960EB211966A021F2
:10008000196600F012F800219960164914480160C1
:100090000121996001BC002800D000471248134993
:1000A000086003C880F30888084703B5996A0420EC
:1000B0000142FBD001200142F8D103BD02B5186610
:1000C0001866FFF7F2FF186E186E02BD00000240BE
:1000D000000000180000070000035F00212200005C
:1000E000F4000018222000A00001001008ED00E03C
:1000F00000000000000000000000000074B24E7A12
:1001000000200420F7010010C3010010C5010010F9
:10011000C1010010C1010010C1010010C101001097
:10012000C1010010C1010010C1010010C701001081
:10013000C1010010C1010010C9010010CB01001065
:10014000CD010010CD010010CD010010CD01001037
:10015000CD010010CD010010CD010010CD01001027
:10016000CD010010CD010010CD010010CD01001017
:10017000CD010010CD010010CD010010CD01001007
:10018000CD010010CD010010CD010010CD010010F7
:10019000CD010010CD010010CD010010CD010010E7
:1001A000CD010010CD010010CD010010CD010010D7
:1001B000CD010010CD010010CD010010CD010010C7
:1001C00000BE00BE00BE00BE00BE00BEEFF3058054
:1001D000103800BEF2EB887138E0001058E00010D3
:1001E0003402001090A31AE700201F49086006C8D7
:1001F00081F3088810471D48006800282FD10DA4FE
:100200000ECC002902D000F012F8F9E71849194A7B
:10021000002000E001C19142FCD1174988471749ED
:1002200088471749884700BEFDE701C901C29A42C5
:10023000FBD3704758E00010C0000020C01700201A
:1002400058F70010000004200000042058F70010A8
:10025000001004200010042000000000704709482E
:1002600005F030FA0047000008ED00E0000000D083
:10027000C0170020FC250020853F001069060010F3
:10028000AD4000105756000006005250ABB360530B
:10029000E8DD001006005250861C0302F8DD001055
:1002A000060052505422A29D00DE0010050052505C
:1002B000DE65F46858F70010F8B5C0460448054BF1
:1002C00010B5834203D0044B002B00D0984710BDDB
:1002D000C0170020C0170020000000000648074992
:1002E000091A8B10C90FC91810B5491003D0044B57
:1002F000002B00D0984710BDC0170020C017002069
:100300000000000010B5074C2378002B09D1FFF73F
:10031000D5FF054B002B02D0044800E000BF0123AD
:10032000237010BD301B00200000000038AA001010
:10033000054B10B5002B03D00449054800E000BF71
:10034000FFF7CCFF10BDC04600000000341B0020AA
:1003500038AA0010F0B5DE464E4645465746802383
:10036000E0B5C3B002AC5B0028220021200001AE42
:10037000338007F04BF801210CA800F0E5FA00F0FB
:1003800015FB0CA800F024FC050000F00FFB002D6D
:1003900006D043B0F0BCBB46B246A946A046F0BD6D
:1003A000012398464246373326AF02213D7038007C
:1003B000FA540CAA02F0AAF800F0F8FA012104207D
:1003C0000CAA01F0C1FB050000F0F0FA002D03D0EB
:1003D000280000F0EBFADCE74246994B0221279314
:1003E000984B3800BB87CA3BFF3BFD52023BFA5497
:1003F0000CAA01F0E5FD050000F0D8FA280000F095
:10040000D5FA002DC5D1022130000CAA01F062FA04
:10041000050000F0CBFA002DBBD1002301213B7079
:100420000CAA380002F072F800F0C0FA864807F013
:1004300057F9864B2435984640239A4620000CA94C
:1004400001F03EFB0028F9D16357625D002BF5DA1D
:1004500053461342F2D00022A35E6A4699464346B1
:100460001B689B463C23D218107805F065FC0B00F6
:1004700080210200C905002006F088F806004846E1
:100480000F0006F0EDFE724906F0DDFE011C06F0DD
:10049000C3FE00226F4B81463900300005F0D7FBC8
:1004A00005F096FC011C484606F0B9FE5A4610605D
:1004B0000221625E3C2391464246126893466A4698
:1004C000D218107805F038FC0B0080210200C90515
:1004D000002006F05BF8060048460F0006F0C0FE5C
:1004E0005B4906F0B0FE011C06F096FE0022594B57
:1004F00081463900300005F0AAFB05F069FC011CBB
:10050000484606F08CFE5A4650600421625E3C2349
:1005100091464246126893466A46D218107805F012
:100520000BFC0B0080210200C905002006F02EF80C
:10053000060048460F0006F093FE454906F083FE8C
:10054000011C06F069FE0022424B81463900300052
:1005500005F07DFB05F03CFC011C484606F05FFE03
:100560005A4690600C22A65E42463C2317686A46B3
:10057000D218107805F0E0FB0B0080210200C905BD
:10058000002006F003F80022324B05F060FB05F076
:100590001FFC011C304806F042FE8146300006F088
:1005A0005FFE011C484606F04EFEF8600E22A65E75
:1005B00042463C2317686A46D218107805F0BCFB07
:1005C0000B0080210200C905002005F0DFFF00229A
:1005D000204B05F03CFB05F0FBFB011C1E4806F020
:1005E0001EFE8146300006F03BFE011C484606F028
:1005F0002AFE38611022A65E42463C2317686A46EE
:10060000D318187805F098FB0B0080210200C9056B
:10061000002005F0BBFF00220E4B05F018FB05F093
:10062000D7FB011C0C4806F0FAFD8146300006F0AD
:1006300017FE011C484606F006FE7861FEE6C0463D
:100640000C0201000902000038AA00101421002049
:100650000AE81C410000E03F0000FA4410B5012107
:10066000182006F0ABFE10BDF0B5C64600B586B04A
:1006700007F0E4F8FFF7F2FF7D4F38607D4809F09E
:10068000D7FB7D4E64220521300006F0BFFE3B689B
:10069000186806F007FEC317C018584006F0E0FDC2
:1006A000764906F0BCFD764906F0CDFD06F02CFE3D
:1006B000C3B21B023360FF231B047360FF23B360CC
:1006C000704B714AF360714B7149B262F362714BC6
:1006D0007148F36509F0D2FB06210500102001F0F6
:1006E000A7FF0123002110226B48009309F02AFC88
:1006F00080235B020293EB1CEA011B031343674A4E
:10070000052013400393664B0593664B049303F057
:1007100073FB06F09FFD644906F081FD804606F0FC
:10072000F3FD84B20023002C0DD0200006F092FDD2
:10073000011C404606F06DFD8721C90506F083FDCA
:1007400006F0E2FDC3B224041B022343524C2A00EC
:100750000293002102AB200009F04CFC0122236827
:10076000134323603C683500206806F09BFDC317E7
:10077000C018584006F074FD404906F050FD40494D
:1007800006F061FD06F0C0FDC3B21B026068336075
:1007900006F088FDC317C018584006F061FD3749C0
:1007A00006F03DFD364906F04EFD06F0ADFDC3B244
:1007B0001B02A068736006F075FDC317C01858408F
:1007C00006F04EFD2D4906F02AFD2D4906F03BFDB1
:1007D00006F09AFDC3B21B02E068B36006F062FD4A
:1007E000C317C018584006F03BFD304906F017FD0E
:1007F000234906F028FD06F087FDC3B21B042069DB
:10080000736106F04FFDC317C018584006F028FD6D
:10081000264906F004FD1A4906F015FD06F074FDA0
:10082000C3B21B04B361606906F03CFDC317C01876
:10083000584006F015FD1D4906F0F1FC104906F080
:1008400002FD06F061FD8021C3B230001B04124A94
:10085000F3616435490203681C0253680B42FCD102
:1008600004301461A842F6D1012002F0DFFD79E7DF
:100870001421002055030010C8180020000070410A
:1008800000007F43640F030096610300FF0A00002D
:10089000D8AA00106464640000002050FFFFFF9F8E
:1008A00000400020000006700024F44A00002042AE
:1008B00070B515000F22012384B00A4E6A441070EF
:1008C00000930C003068682109F0AAF90023306811
:1008D0002200009368212B0009F00AFA002004B0DE
:1008E00070BDC0469025002010B5002102F08CFD9F
:1008F00010BDC046F0B5FF24124B14401D68230004
:1009000083B06E460833DB08DB00F31A02AF9D4666
:10091000D2B202AE002A10D0307009200122684401
:10092000002C00DD220006F077FD002268210092F5
:1009300028003200631C09F073F90020BD4601B0A5
:10094000F0BDC0469025002010B5040006F076FFEB
:100950000321002001F06CFE0321012001F068FE5C
:100960000B4806F0BDFE0B4B0B480C49186009F014
:100970002DF9012363720A4B0A4AA3630A4B2264CE
:10098000E3638022002300206360E281636110BD85
:10099000E8AA001090250020500F0020801A0600C1
:1009A000B1080010E9080010F50800100300223318
:1009B000DBB210B5242B03D8634A9B00D3589F4663
:1009C0000100624806F02EFF10BD0221604806F0CB
:1009D00029FFF9E701215F4806F024FFF4E7012130
:1009E0005D48494206F01EFFEEE702215B4849429E
:1009F00006F018FFE8E703215948494206F012FFC4
:100A0000E2E704215748494206F00CFFDCE70521E4
:100A10005548494206F006FFD6E7062153484942A9
:100A200006F000FFD0E707215148494206F0FAFEE0
:100A3000CAE708214F48494206F0F4FEC4E70921FD
:100A40004D48494206F0EEFEBEE70A214B484942B6
:100A500006F0E8FEB8E70C214948494206F0E2FEFC
:100A6000B2E70D214748494206F0DCFEACE70E2113
:100A70004548494206F0D6FEA6E70F2143484942C1
:100A800006F0D0FEA0E710214148494206F0CAFE18
:100A90009AE711213F48494206F0C4FE94E712212B
:100AA0003D48494206F0BEFE8EE713213B484942CD
:100AB00006F0B8FE88E714213948494206F0B2FE34
:100AC00082E715213748494206F0ACFE7CE7162143
:100AD0003548494206F0A6FE76E7172133484942D9
:100AE00006F0A0FE70E718213148494206F09AFE50
:100AF0006AE719212F48494206F094FE64E71A215B
:100B00002D48494206F08EFE5EE71B212B484942E4
:100B100006F088FE58E71E212948494206F082FE69
:100B200052E720212748494206F07CFE4CE721216C
:100B30002548494206F076FE46E7222123484942ED
:100B400006F070FE40E7C0461CBA0010F8B900106D
:100B500014AB0010F8AA001038AB0010CCAB00109A
:100B60005CAC001024AE0010ECAE0010ACAF001076
:100B700068B00010BCAC001040B10010BCB1001057
:100B8000A4AD001038B20010ACB2001028B30010B1
:100B900034AD00109CB3001024B4001094B40010C5
:100BA00000B5001054B50010ACB50010F0B5001041
:100BB00070B60010ECB6001050B70010BCB70010B3
:100BC00010B800108CB80010FCB800108CB90010E0
:100BD00010B5041E2DD0836B002B2AD0C36B002BC5
:100BE00027D0036C002B24D024230370124B836482
:100BF000437A5A425341C3724369002B16D02000F6
:100C000000F026FE002800D010BD0C4B0822236205
:100C10000B4B200063620B4B23830723A3760A4B05
:100C2000E3656023E25401F059F9EDE7074B4361B6
:100C3000E5E701204042E7E703000020B0DA0010BA
:100C4000E4DA001008110000600E0020B0BA0010B5
:100C5000F8B506000F00141E3ED0936B002B3BD05E
:100C6000D56B002D38D0136C002B35D0002933D034
:100C7000537A002B2AD04723E35C012B10D0390094
:100C8000636801223000A8476168A072236C0220CB
:100C900098477C2E11D00A20205600281FD1F8BD7D
:100CA0003900636801223000A847A072E120616822
:100CB000236C400098477C2EEDD1012319003A782F
:100CC0001140134205D04722A354E4E77F331E406E
:100CD000D1E74723E154DEE701204042DFE702206D
:100CE0004042DCE7F0B54F464646D6468046C0B5A2
:100CF00014000F00002A64D0936B002B61D0D66BD8
:100D0000002E5ED0136C002B5BD0002959D0537A93
:100D1000002B1AD04723E35C012B1ED0022239009E
:100D200063684046B047236CA07261680220984710
:100D300043467C2B31D00A23E356002B3ED10020C2
:100D4000E0BCBA46B146A846F0BD02007F331A4067
:100D50004723E35C9046012BE0D1BB1C9A464346F7
:100D6000DB1B3D00994600E0E66B4B46581901221B
:100D700029006368C0B2B047A072E120236C6168AB
:100D8000400098470A23E356002B14D101355545FE
:100D9000EAD142467C2AD2D101E00A23E35601225D
:100DA0001000397808400A4202D047216254C4E753
:100DB0004722A054C1E742467C2AF0D0022040429C
:100DC000BEE701204042BBE770B50E001400A0B0A2
:100DD000002A2DD0956B002D2AD0D36B002B27D065
:100DE000136C002B24D0002922D0537A002B17D06B
:100DF000E27A694663680132A8474723A072E35C40
:100E00006168012B0FD00220236C98470A202056DE
:100E1000002810D16A46E37AD35C337020B070BDED
:100E200080331843E4E7E120236C40009847EDE766
:100E300001204042F2E702204042EFE7F0B5867819
:100E40000C0083B0012E3CD84778F60176B2032F10
:100E500042D830213F010F404379012B29D840214E
:100E60009B0119400578052D06D806230122037041
:100E7000237A1343237205780D2D35D8C3786DB2CC
:100E8000012B3BD80822DB001A400379042B3FD802
:100E90005BB268463E4331432943134301714371BA
:100EA0002200422001A9FFF71DFF002838D003B01F
:100EB000F0BD012302224371237A402113432372A0
:100EC000D0E701230222802683700B7A76421343F7
:100ED0000B724778032FBCD9032302224370237A75
:100EE000302713432372B7E70D2302220370237ABE
:100EF0000D2513432372C378012BC3D9012302228A
:100F0000C370237A1343237203790822042BBFD9B9
:100F1000042303710220237A034323720423B8E7D6
:100F20006B462200D91C1B30FFF74EFF0028BED1B4
:100F30006B46DB78DB065B0F5A1E022AB7D80438F3
:100F4000C01AB4E770B50D001400A0B0002A31D06B
:100F5000966B002E2ED0D36B002B2BD0136C002B56
:100F600028D0002926D0537A002B1BD0E27A69467C
:100F700063680232B0474723A072E35C6168012BCB
:100F800013D00220236C98470A202056002814D141
:100F90006A46E37AD35C2B70E37A6B445B786B70C0
:100FA00020B070BD80331843E0E7E120236C40009F
:100FB0009847E9E701204042F2E702204042EFE78C
:100FC000F0B583B09C466B46076808AC267800975E
:100FD00009AC878825780AAC24789F804900002EC8
:100FE00010D1595E52006B460180002D13D19A5EDC
:100FF000634642805B006A46002C15D1D35E838035
:1010000003B0F0BD6B46595A5200494209B26B46D3
:101010000180002DEBD09A5A6346524212B24280B0
:101020005B006A46002CE9D0D35A5B421BB2E6E76C
:1010300030B583780C0083B0012B14D90123022230
:1010400083700B7A13430B728378012B0ED1417896
:10105000032947D9032302224370237A3021134303
:101060002372837808E0012BF1D00023417807290F
:1010700028D87022090111400278002A06D10122E5
:1010800001250270227A2A43227202780C2A21D882
:1010900052B2C578032D06D90325C5700225207AE2
:1010A000284303252072DB0119436B460A431A715A
:1010B000402022005D7101A9FFF714FE002813D023
:1010C00003B030BD072202214270227A0A43227205
:1010D0007021D1E70C2202250270227A2A43227263
:1010E0000C22D6E78378C4E76B462200D91C1B305C
:1010F000FFF76AFE0028E3D16B46DB78DB065B0F67
:101100005A1E022ADCD80438C01AD9E770B5050087
:101110000C00A0B000293FD08E6B002E3CD0CB6BD2
:10112000002B39D00B6C002B36D0487ACA7A431E7C
:1011300098417F2340429843C2304B68023269464F
:10114000B0474723A072E35C6168012B1FD00220E7
:10115000236C98470A202056002820D16A46E37A5B
:10116000D25C6B445C78D309AB70012391111940B8
:1011700069719106890F69700F210A402A70E21087
:101180001340EB70072323402B7120B070BDE1208A
:10119000236C40009847DDE701204042F5E702203C
:1011A0004042F2E7F0B5C64600B5A2B06B46DD1D81
:1011B000002306000F00141E2B705ED0936B984620
:1011C000002B5AD0D36B002B57D0136C002B54D06C
:1011D000507AD27A431E98417F234042984302A915
:1011E0006368FD300132C0474723A072E35C616849
:1011F000012B37D00220236C98470A202056002864
:101200003ED16A460821E37A5218D35C2B70F2076C
:1012100002D5042213432B70B2071DD4720715D4D4
:10122000FA0709D4072301211E400F403E431ED177
:1012300022B080BCB846F0BD0822134301212B70B8
:1012400007230F401E403E43F2D010E0012213431B
:101250002B70FA07E6D5EFE7022213432B707207D3
:10126000DED5F3E7E120236C40009847C5E7220074
:1012700029007D20FFF7ECFCDAE701204042D7E7A8
:1012800002204042D4E7C04670B505000C00A0B073
:10129000002962D08E6B002E5FD0CB6B002B5CD010
:1012A0000B6C002B59D0487ACA7A431E98417F2391
:1012B00040429843EB304B6801326946B0474723C0
:1012C000A072E35C6168012B39D00220236C98473F
:1012D0000A220220A2564042002A2ED16946012647
:1012E000E37A4B20CB5C0A805B11334022002B70E9
:1012F000FFF728FE002820D16B461B785B08EB71B6
:101300006B465A7893111E40032391101940D0095F
:1013100013406870AE70E9702B71002814D0220061
:1013200069464420FFF750FD002806D16B461A7825
:101330001309AB710F2313406B7120B070BDE12016
:10134000236C40009847C3E72900220008314D3044
:10135000FFF73AFD0028F0D1E1E701204042ECE739
:10136000F0B5C64600B5884617001D00A0B0002B9A
:1013700038D09C6B002C35D0DB6B002B32D02B6C23
:10138000002B2FD000292DD06B7A002B22D0EA7AA7
:1013900069466B68D219A0474723A872EB5C69685D
:1013A000012B1AD002202B6C98470A2028560028BF
:1013B0001BD10024002F09D026004246EB7A6E4450
:1013C000F35C13550134A3B29F42F5D820B080BC22
:1013D000B846F0BD80331843D9E7E1202B6C4000BC
:1013E0009847E2E701204042F0E702204042EDE763
:1013F000F0B54F46D64646468A46C0B591460700E8
:101400001C1E60D09B6B002B5DD0E36B9846002BBD
:1014100059D0236C002B56D0002954D0637A002B6E
:1014200019D04723E35C012B1BD0514663684A4621
:101430003800C0476168A072236C022098470A23D5
:10144000E3567C2F2CD0002B3AD10020E0BCBA46CA
:10145000B146A846F0BD7F331F404723E35C012B14
:10146000E3D14B46002BEAD05646002506E0013575
:10147000ADB20136A94520D0E36B98467819012218
:1014800031006368C0B2C047A072E120236C61687C
:10149000400098470A23E356002BE8D07C2F0FD159
:1014A000012251461000097808400A4202D0472123
:1014B0006254C8E74722A054C5E77C2FC5D1EFE7A7
:1014C00002204042C2E701204042BFE770B5A2B00F
:1014D00000236A4605000C1ED37141D08E6B002E8E
:1014E0003ED0CB6B002B3BD00B6C002B38D0487A16
:1014F000CA7A431E98417F2340429843FC304B6890
:10150000013202A9B0474723A072E35C6168012B56
:1015100021D00220236C98470A230220E356404240
:10152000002B16D108216A460126E37A5218D35CB3
:101530003540B3431D436B4622007C20D91DDD712D
:10154000FFF786FB00280ED16B46DB791E40472350
:10155000E65422B070BDE120236C40009847DBE7E1
:1015600001204042F5E70D204042F2E7F0B5DE46AB
:1015700057464E464546E0B583B000236A46041EF2
:10158000D37067D0836B002B64D0C36B002B61D00A
:10159000036C002B5ED04A23C35A9846002B59D0C7
:1015A000C689F30711D4012E02D802230226E38153
:1015B00021000020FFF78AFF00280AD003B0F0BC0A
:1015C000BB46B246A946A046F0BD013EB6B2C681B2
:1015D000E9E701AD2870220029005920FFF7F4FB4C
:1015E0000028EBD101222B782900934359302200A7
:1015F0002B70FFF72DFB0028E0D13100404604F0AE
:10160000BBF88AB2C9B2002927D1E38900269A46DD
:101610000F2399461AE04A46730813402B702200A4
:10162000730929005B206B70FFF75CFB0028C5D1B4
:101630002300524639005E30FFF7DAFEE3899A460E
:101640005644B6B2B04557D90028B7D163699F193F
:10165000002FE0D101204042B0E7FF231340424673
:10166000D31A9BB29946002B00D1A6E0E3896769A3
:101670009A460F2300269B46002FEBD05A4673084C
:1016800013402B702200730929005B206B70FFF759
:1016900029FB002800D091E75246230039005E3034
:1016A000FFF7A6FEE28992465644B6B2B14507D985
:1016B000002800D082E763699F19002FDED1C9E7B7
:1016C000002800D07AE70223E381C8457DD9666906
:1016D0004E4402230F279B464B465B083B402B7032
:1016E0004B4622005B0929005B206B70FFF7FAFA7A
:1016F000002841D05346E381002800D05EE7002354
:101700002200290059202B70FFF75EFB002800D033
:1017100054E701222B7829009343134359302200C8
:101720002B70FFF795FA002800D047E72100013021
:10173000FFF7CCFE002800D040E7A36B002B34D08D
:10174000E36B002B31D0236C002B2ED06168204836
:1017500098476B462200D91C2120FFF735FB6B46CA
:10176000DA780F2313402374002800D026E7012BDA
:1017700000D123E7093821E75A46230031005E30C3
:10178000FFF736FEE28993464A465A4492B29146A2
:101790009045AFD90028ADD166694E44002E9BD14B
:1017A00053460120E381404208E76B46DA780F2375
:1017B000012013402374404200E7E38966699A469A
:1017C0000223E381002E84D1EAE75346E38196E7C2
:1017D000204E000070B582B06B46991DB6230B7089
:1017E0006B46DE1D0023041E33702ED0836B002B4E
:1017F0002BD0C36B002B28D0036C002B25D002000C
:101800007E20FFF725FA0500FA20236C6168C000EE
:10181000984747230122E254002D0BD1637A002B15
:101820000BD02000FFF7A2FE051E03D100220023EB
:1018300022636363280002B070BD220031000020E3
:10184000FFF7C2FA051EF5D1EBE701256D42F1E77E
:1018500010B582B000236A46041ED37130D0836B6A
:10186000002B2DD0C36B002B2AD0036C002B27D06C
:1018700047230122C254437A002B18D06B46220022
:101880000020D91DFFF7A0FA00280ED16B46227860
:10189000DB799A4217D1102323730F3BE3760C4B6D
:1018A000A085A3622000FFF795FF02B010BD6B4634
:1018B0000200D91D0020FFF787FA0028F5D1DDE7E7
:1018C00001204042F1E7032023704042EDE7C0468B
:1018D00000010200F8B5CE46474605000E0080B56F
:1018E000002A40D0936B002B3DD0D36B002B3AD015
:1018F000136C002B37D0002835D000292DD00423BD
:101900009946033B9C460133002400270021002018
:10191000984605E043461F430134E3B29E420BD98B
:101920002B5D022B16D00DD8002BF3D1634601346A
:101930001F43E3B29E42F3D8002810D0C0BCB94682
:10194000B046F8BD202B02D163461943E4E70820D6
:101950004042E1E74B461F43DEE700270021380005
:10196000FFF720FCEAE701204042E7E7F0B504007A
:101970000E00150085B0002A00D19AE0936B002B71
:1019800000D196E0D36B002B00D192E0136C002BBA
:1019900000D18EE0002900D18BE00B001833190034
:1019A000421C1143890700D072E0811C5B1A022B94
:1019B00000D86DE01368B361431D1B68F361A37A1F
:1019C000627A1B0213433380237BE27A1B021343A8
:1019D0007380A37B627B2D201B021343B3802922DB
:1019E0002A232821285CEB5CAA5C695C02902C20ED
:1019F000285C01902B20285C00903000FFF7E0FA73
:101A0000277CE27B3F0217433FB2B781A37C627C15
:101A10001B0213434422F381237DE17C1B020B4311
:101A20001BB23382A95E30005943CA17D205D30DC9
:101A300080225B185B121BB20C30FB1A120293421D
:101A400024DA1D490A008B4200DB1AB22D27B2812D
:101A50002A2329222821EF5DEB5CAA5C695C0297AE
:101A60002C27EF5D01972B27ED5D0095FFF7A8FA76
:101A7000E37DA27D1B0412021343627D0020134309
:101A8000336224232278F25405B0F0BD0B4ADDE71F
:101A900063783376A3787376E378B3762379F37635
:101AA00063793377A3797377E379B377237AF3771D
:101AB00085E701204042E7E70080FFFFFF7F00004D
:101AC00070B505000C00A6B0002839D0002937D029
:101AD0008E6B002E34D0CB6B002B31D00B6C002BD7
:101AE0002ED0487ACA7A431E98417F2340429843B9
:101AF00083304B68183206A9B0474723A072E35CD5
:101B00006168012B17D00220236C98470A2302201A
:101B1000E3564042002B0CD106AB9C46E17A1822DA
:101B20006144684605F078FC220029006846FFF70A
:101B30001DFF26B070BDE120236C40009847E5E70B
:101B400001204042F5E7C046F0B5A3B014000023E1
:101B50006A4606000D00D371002C62D0A76B002FDF
:101B60005FD0E36B002B5CD0236C002B59D0607AE4
:101B7000E27A431E98417F234042984302A963685A
:101B8000D8300132B8474723A072E35C6168012B6B
:101B900023D00220236C98470A230220E3564042B8
:101BA000002B18D16A460821E37A5218D25C032D23
:101BB0003AD83301DBB2022D14D0032D26D0012DEB
:101BC0001AD033439A436B46DA716B462200582091
:101BD000D91DFFF73DF823B0F0BDE120236C400094
:101BE0009847D9E713436A46D3716B462200D91D43
:101BF0005820FFF72DF8EEE76B463243DA716B465B
:101C00002200D91D5820FFF723F8E4E713431E43B1
:101C10006B46DE716B462200D91D5820FFF718F87D
:101C2000D9E701204042D6E70C204042D3E7C04626
:101C3000F0B54F46D6464646C0B5A2B06B460F003B
:101C40001400D871002900D1FCE0002A00D1F9E08D
:101C5000127EC3B29A4200D8EEE06B4622002F20DB
:101C6000D91DFEF7F5FF00286CD1E5890F2D00D9AD
:101C700073E0EB0700D5D6E0002399463033984651
:101C800010260023B2B29A46B5424CD8A66B002E5D
:101C900000D1D4E0E36B002B00D1D0E0236C002B0B
:101CA00000D1CCE0637A4046002B02D1802043462D
:101CB0001843E27A636802A95219B0474723A07219
:101CC000E35C6168012B43D00220236C98470A2013
:101CD0002056002800D0B8E052460023B918002D45
:101CE00008D0E27A02AEF618B25CCA5401339AB256
:101CF0009542F6D8E5895346EDB2EB18DBB29A4629
:101D00004346EB18DBB24D449846EBB29946102699
:101D10004B46F61AF6B2002814D1002E12D0E589EF
:101D2000B2B2B542B2D953464E44F91840462300E8
:101D3000FFF716FBF3B2994610264B46F61AF6B299
:101D40000028EAD022B0E0BCBA46B146A846F0BDB1
:101D5000E120236C40009847B9E7A56B002D71D0B6
:101D6000E36B002B6ED0236C002B6BD0607AE27A91
:101D7000431E98417F234042984302A96368B030D4
:101D80001032A8474723A072E35C6168012B4ED054
:101D90000220236C98470A202056002859D16A4611
:101DA000082152189446E37AD35C3B70E37A63448B
:101DB0005B787B70E37A63449B78BB70E37A63441F
:101DC000DB78FB70E37A63441B793B71E37A63440D
:101DD0005B797B71E37A63449B79BB71E37A6344FB
:101DE000DB79FB71E37A63441B7A3B72E37A6344E9
:101DF0005B7A7B72E37A63449B7ABB72E37A6344D7
:101E0000DB7AFB72E37A63441B7B3B73E37A6344C4
:101E10005B7B7B73E37A63449B7BBB73E37A6344B2
:101E2000DB7BFB738EE7013DADB2E58124E7E1206A
:101E3000236C40009847AEE70A20404282E7012029
:101E4000404258E7012040427CE70220E5894042B9
:101E500051E70220404275E70023F0B587B00E003D
:101E600007000C22002103A8029305F0CFFA4823B3
:101E7000F35A9B0623D4B57E002D1DD00023726A31
:101E800004E00133DBB20332AB4215D01478292CC5
:101E9000F7D19478507802A93200FFF7C9FE0028E4
:101EA00008D108226B469B181A5D7F231340520607
:101EB00011D43B8007B0F0BD08204042FAE76B46E2
:101EC00032001E20D91DFEF77FFF0028F2D16B469D
:101ED000DB795A06EDD5803B3B80EBE7482330B5F4
:101EE000C35A040089B09B0763D5836B002B63D072
:101EF000C36B002B60D0036C002B5DD029236A4696
:101F000013701E33C55C012D0ED0210001A8FFF710
:101F1000A3FF002806D1012D42D06B469A884423A6
:101F20000020E25209B030BD01000020FFF7CEFAD8
:101F30000028F7D16B461B78092B38D104900C226E
:101F4000002105A805F062FAA07E002831D0002308
:101F5000626A04E00133DBB20332834229D0117894
:101F60000929F7D19578507804A92200FFF760FE7F
:101F70000028D7D110226B4601209B18595D05001F
:101F80004A1002408B1018400D40130200042B43EE
:101F900003438A06520F1B0212061B0A13430193C6
:101FA00021000120FFF792FA0028B6D0BAE7292BCA
:101FB000ABD008204042B5E701204042B2E7C0461E
:101FC000F0B54546DE4657464E46E0B5150089B0A9
:101FD000002A00D1BDE1936B002B00D1B9E1D36B96
:101FE000002B00D1B5E1136C002B00D1B1E100282A
:101FF00000D1AEE14723D35C9846002900D15CE1D3
:1020000003000139C9B2CE00761A3833F600F6184B
:10201000042304009A460BE02900201DFEF70EFF62
:102020000700002F00D0BCE03834A64200D144E1C4
:102030004346012B00D1BCE02378022B00D1BFE046
:1020400007D8002BE8D12900201DFEF7F1FF07007B
:10205000E7E7092B00D0A2E004AB994600230C224D
:10206000002105A8049305F0D1F9687E002800D16D
:1020700095E000232A6A05E00133DBB20332834294
:1020800000D18CE011780929F6D19378507849462F
:102090002A009B46FFF7CCFD071E00D081E05B467F
:1020A0004A465B085900525AA088D20A4005400DA2
:1020B000D202024348464252591C4900425AE08823
:1020C000D20A4005400DD202024348464252991CB2
:1020D0004900425A2089D20A4005400DD2020243EB
:1020E000484642525A4603335B009B1ADBB2002B30
:1020F00031D0494603205944014200D047E15A1EDD
:10210000082A00D843E11A008243184223D094469B
:10211000153002AF6044BC46604458441038007823
:1021200001928854501CC0B2834214D95F461837BC
:1021300067443A189446102252429346DC44624661
:1021400012780A54019A0232D2B2934203D9BF18CC
:102150005F443B788B54AB6B002B00D1F9E0EB6B09
:102160009B46002B00D1F4E02B6C002B00D1F0E05B
:102170004723EB5C012B00D1EEE0102249466B684F
:102180003020D8472B6CA8726968022098470A2330
:10219000EB56002B00D147E702277F4201E00827DA
:1021A0007F42380009B0F0BCBB46B246A946A04603
:1021B000F0BD29000020FFF789F9071EF1D13BE7A8
:1021C000637A002B06D10122013363722B7A134309
:1021D0002B72637A0B2B05D90B23022263722B7AA5
:1021E00013432B7204AB2A0019006B209946FEF7AB
:1021F000EBFD071ED5D14A462021237912785B01D9
:102200008A430B4013434A46494613706B202A0009
:10221000FEF71EFD071EC4D14B461880002302AAFC
:10222000D37149462A004B30FEF78CFE071EB8D109
:102230004B461A7801231340E27AA17952001343E6
:102240004A4613707F23527889011340627915370B
:10225000D2011343402293430A4013430C22E179F5
:10226000934389000A4013430322217A93430A408F
:1022700013434A465370AB6B002B13D0EB6B002B10
:1022800010D02B6C002B0ED002AB2A00D91D0320DE
:10229000FEF79AFD524602ABDB7913400343DBB2F3
:1022A000002B15D02B6C013F69687248FFB298472C
:1022B000002FE0D10F277F4273E74346012B01D067
:1022C00000276EE729000120FFF700F9070068E703
:1022D00049462A004B20FEF705FD0700FA206968F1
:1022E0002B6C80009847002F00D05AE76379002BB1
:1022F0001FD00123EB76E3792B772A00494644204F
:10230000FEF762FD071E00D04BE70F22617AA37A29
:102310000A401B0113434A464946137044202A00D1
:10232000FEF796FC0700FA2069682B6C800098473E
:1023300077E62100EF760C312A004D20FEF788FC6D
:102340000700FA2069682B6C80009847002FD4D0D2
:1023500027E701277F4224E7002705E00137102FF8
:1023600000D161E6EB6B9B4638004B463030D91903
:1023700001226B68C0B2D847A872E1202B6C696853
:10238000400098470A23EB56002BE7D004E70A7871
:10239000584649460A54012B00D1DCE602A98C4676
:1023A00009226244115C4A465A445170022B00D102
:1023B000D1E60A216144095C9170032B00D1CAE681
:1023C0000B216144095CD170042B00D1C3E6614646
:1023D0000C27C919095C1171052B00D1BBE60D2131
:1023E0006144095C5171062B00D1B4E60E216144B1
:1023F000095C9171072B00D1ADE60F216144095CA6
:10240000D171082B00D1A6E606A9095C1172092B2F
:1024100000D1A0E611216144095C51720A2B00D160
:1024200099E612226244115C4A465A4491720B2B7F
:1024300000D190E613216144095CD1720C2B00D1CC
:1024400089E607A9095C11730D2B00D183E61521DC
:102450006144095C51730E2B00D17CE61621614466
:10246000095C91730F2B00D175E6172363441B5C45
:10247000D37370E610270000F0B500230E0085B07E
:1024800007000C22002101A8009304F0BFFF757E15
:10249000002D36D00023326A04E00133DBB2033270
:1024A000AB422ED01478092CF7D194785078694635
:1024B0003200FFF7BDFB002825D16A46631CDBB262
:1024C000D25C6B461B5D120213436A4669465B058C
:1024D0005B0D3B80E31CDBB2D25CA31CDBB2CB5CAC
:1024E000120213435B055B0D7B80631DDBB204347A
:1024F000CA5CE4B20B5D120213435B055B0DBB804B
:1025000001E00820404205B0F0BDC046F0B5CE461F
:10251000474680B5150083B0002A00D184E0936B54
:10252000002B00D180E0D36B002B00D17CE0136C3A
:10253000002B00D178E0002800D175E04723D75C5C
:1025400000294ED003000139C9B2CE00761A3833C3
:10255000F600F618002398460733040099460CE06D
:10256000022B4DD0012B14D12900201DFEF7CEFDEA
:10257000002839D13834B44233D02378032BEFD933
:10258000012F44D0092B38D12900201DFFF774FFFB
:10259000EEE7012B2DD86B4642469A80AB6B002BA1
:1025A00042D0EB6B002B3FD02B6C002B3CD02A0091
:1025B000402001A9FEF7C6FC002815D16B4649460C
:1025C0001A79D309A37113110B4063710F231340C0
:1025D00023716B465A7903231340E3713834B442B4
:1025E000CBD1012F1BD0002003B0C0BCB946B046F0
:1025F000F0BD022B06D0092BC6D008204042F3E7DD
:10260000012F04D02900201DFEF73EFEB0E729006F
:102610000020FEF75BFF0028E6D12378A2E729001F
:102620000120FEF753FFDFE701204042DCE7C04610
:10263000094A830094464022634410B51C68C000D8
:102640006240C02414408022520113431C60034B9B
:102650009C466044416010BD04C001400040014000
:10266000024B18688007C00F7047C04600C0064084
:10267000EFF3108072B6034A1368002BFCD0BFF34F
:102680005F8F70472C0100D0BFF35F8F0022024B99
:102690001A6080F3108870472C0100D070B5EFF3FA
:1026A000108C72B60D4D2B68002BFCD0BFF35F8FE2
:1026B0000724CB08C618C05C01230C40A3401C00B3
:1026C0000440034207D103433370BFF35F8F2C6094
:1026D0008CF3108870BD100001F0ECFC2C0100D0D0
:1026E000F8B54746CE46884680B5EFF3108C72B6F3
:1026F000214D2C68002CFCD0BFF35F8F9A422CD860
:10270000D4080727055D061901241740BC402C4258
:102710001FD007210127894609E0D408055D061965
:102720004C4639001440A1400C00294211D001321E
:102730009342F2D201204042BFF35F8F00220E4B42
:102740001A608CF3108800280FDBC0BCB946B04675
:10275000F8BD2C4310003470EEE7BFF35F8F002309
:102760002B608CF31088012040424346002BECD0B4
:10277000089801F09FFCC0462C0100D00021044BBA
:10278000044ABFF35F8F02C39342FAD17047C04639
:10279000000100D0800100D0044A1078431CDBB255
:1027A000172B00D9102313707047C046700E0020FD
:1027B00000B5054B83B00100009318221F23034886
:1027C000FFF78EFF03B000BDFCDA0010E820002008
:1027D00001238340002904D0034A1360034A136095
:1027E0007047034A1360FBE780E200E000E100E08D
:1027F00080E100E001228240034B1B6813405A1E17
:102800009341D8B27047C04600E100E00123834005
:10281000014A13607047C04600E200E0084B1030E8
:102820009B688000C358002B07D0064A00209B1AE3
:102830002F229A424041C0B270470020FCE7C046B8
:1028400000ED00E0740E0020024B10309B68800009
:10285000C058704700ED00E070B50D00EFF3108632
:1028600072B60F4A1368002BFCD0BFF35F8F0D4B7D
:1028700010309B6884001B590B4A934203D09D4241
:1028800001D001F02FFC074B9B681D51BFF35F8FF8
:10289000BFF35F8F0022024B1A6086F3108870BD71
:1028A000240100D000ED00E0CD010010F0B5574646
:1028B0004E46DE464546E0B585B00600029117005B
:1028C000EFF3108B72B6674A1368002BFCD0BFF38E
:1028D0005F8F0025644B5D579A46002D00DAA4E017
:1028E0006B00624C03935B199B009846A146C14460
:1028F0004B4652469B79103613705D4BB2009B6875
:10290000019299580B1B2F2B34D95A4B994200D066
:10291000A4E0039B584A9C46584B6544AD00635362
:10292000434602336519E418554B0121043B1B1B38
:102930001B055B0D13436B80524BEF71AB80FF2384
:10294000AB71029BAB604B460B431900484B019A9D
:102950009B689950BFF35F8FBFF35F8F0022414B9D
:102960001A608BF3108805B0F0BCBB46B246A9468E
:10297000A046F0BD01200A008243D379BB422FD884
:1029800045464E46130040491B1B5B415943090D08
:102990003A4B63533A4B02356519043B5B1B1B05ED
:1029A000354D5B0D2B4373800426B446E04444440C
:1029B000131F1B1B4C46A17102991B05A1604946C0
:1029C0005B0D2B43A380314BE77101431360BDE7DF
:1029D0005800C01880002018C679BE422BD90200CA
:1029E0000623D356002BF3DA101D82462848804672
:1029F00004267642B446E14450464E46361A300527
:102A0000400D824656461C48957106439680039AAF
:102A1000944665441D4AAD00641922604246A37184
:102A2000029BA280E771A36090E701F05BFB0025A9
:102A300053465D5754E7101D8246908840050015A7
:102A400084464046D444664604302018301AE026B6
:102A50000005400D360230438046C9E701F042FBD5
:102A600057E7C046240100D0F5250020740E002051
:102A700000ED00E0CD01001000E0FFFF00A1FFFF2E
:102A8000A40E002001BDFFFFAAAA00000148804754
:102A900001BD0000F0B5DE4657464E464546E0B55E
:102AA0000C0083B0EFF3108972B6584A1368002BFC
:102AB000FCD0BFF35F8F564B9A68030010339F0022
:102AC000D559544A9046954232D0A54243D0524EF1
:102AD000AA1B2F2A2CD801228240924651464F4AE7
:102AE00012681140019151464D4A1160BFF35F8F4A
:102AF000EFF305829346002A33D101232A009A433B
:102B000093689C4208D177E04B005B189B00F31858
:102B10009968A1422AD01A00062151560029F3DAF9
:102B2000019B002B19D052463E4B1A603B4B1A605A
:102B3000374B9B68DD51BFF35F8FBFF35F8F002280
:102B4000324B1A6089F3108803B0F0BCBB46B24622
:102B5000A946A046F0BD1500EAE75246304B1A6080
:102B6000E6E79342C9D001F0BDFAC6E706215956FF
:102B7000002921DB4A005018800034188046A068E4
:102B80009860E079D871062020569871002824DBDF
:102B9000A488F01A6405241544440019E0240005B3
:102BA000400D24022043988052181F4B9200B61803
:102BB0001A781970B271B3E7594600290FD1FF3165
:102BC00091711A49918018490A789A71184A9B1B89
:102BD0005B415A43120D0A70A2E71648E3E7164A12
:102BE0001649D21A083A5002400D014399801449FF
:102BF00052080A43DA8093E7062151561300002950
:102C0000B8DA5A46002AEAD14546DCE7240100D06A
:102C100000ED00E0CD010010740E002000E100E0A6
:102C200080E100E080E200E0F525002001BDFFFF2B
:102C3000AAAA000001BD0000AE0E002000F0FFFFB8
:102C400000F8FFFF70B5EFF3058101240443EFF3B3
:102C5000108C72B6214A1368002BFCD0BFF35F8F33
:102C60001F4B05001F4AED1A6D416A43120D1E4DA0
:102C70008900AE6852B27658A6421CD00621595639
:102C800091421CD012215956914222D01E215956F0
:102C9000914220D02A2159560324914210D0134B3F
:102CA00019781A708171BFF35F8F00220B4B1A6085
:102CB0008CF3108870BDAB680D4C5C50EFE70024BE
:102CC0006100091989005B18FF21997109499980F0
:102CD000E5E70124F4E70224F2E7C046240100D02E
:102CE000740E0020AAAA000000ED00E0F5250020E7
:102CF000CD01001001BDFFFF054B064A1360064AD7
:102D0000136053609360D3601361536193617047A4
:102D10008080808000E400E004E400E000B5074B20
:102D200083B001000093002205230548FFF7D8FC7B
:102D3000002801DB1F23181A03B000BD18DB0010A8
:102D4000FA250020024B9C466144890001607047CF
:102D50004000003410B50400FFF71EFD0100200004
:102D6000FFF7F0FFFF232371BFF35F8F10BDC04655
:102D700010B50400FFF710FD01002000FFF7E2FF8F
:102D8000FF23A380BFF35F8F10BDC04610B50400C2
:102D90000120FFF70DFD044B9C466044800020603D
:102DA000BFF35F8F10BDC04640000034034B9C460C
:102DB000614489000160BFF35F8F704740000034B9
:102DC00083680B4810B584466144624409011201CE
:102DD0009A18591854684B6801209C4201D802D0B7
:102DE0000020C0B210BD12680B689A42F9D8F7E70C
:102DF000FFFFFF0F0A4B1968EFF3108072B60A68E5
:102E0000002AFCD0BFF35F8F1B68BFF35F8F0022E7
:102E10001A6080F3108840BF002000217047C04630
:102E2000C4250020F8B557464E464546DE46E0B577
:102E300099460CAB1C780DAB1B78060090469A4661
:102E40000768002C11D1BC7B002C42D065003B6888
:102E50002D19033D59194B78BB73002B00D1FB731F
:102E600000238B704B700B7004E065003B682D19DC
:102E7000033D5919B2682A4B94464246E3181B0198
:102E800063441A604A465A600A9A9A600B9ADA605A
:102E900000238B704B700B707B7B9B46002B2BD0E1
:102EA00022005946B8687B6898473A68002816D0CF
:102EB0005B4658465B005B445519033BA870D1182C
:102EC000D35C002B00D06B705B460C707B73A3450A
:102ED00013D0F0BCBB46B246A946A046F8BD5B463F
:102EE0005B005B44033BD3189C705119525D002A70
:102EF00000D05A705B460B707C7342464B46307D67
:102F000000F0B4FB051E06D05346002B03D1210070
:102F1000306800F0D5FD0E9B002BDAD01D70D8E78D
:102F2000FFFFFF0FF0B5DE4657464E4645460023ED
:102F3000E0B58BB00893664B8200D45800239B46C3
:102F4000099000F033FB626806000F00EFF3108574
:102F500072B61368002BFCD0BFF35F8F23689C46CA
:102F60005B7B9946002B68D0A2685A4B90464B4435
:102F70001B01984443461A685B6810001900801BC7
:102F8000B941002963DD099800F070FB002300229D
:102F9000984600230692079300239A466368BFF37E
:102FA0005F8F5A461A6085F310885346002B08D16C
:102FB0000028C6D10BB0F0BCBB46B246A946A0461D
:102FC000F0BD089B414618024B461843D047626843
:102FD00006000F00EFF3108572B61368002BFCD0CB
:102FE000BFF35F8F002F4FDB33003B4302D02369D9
:102FF000002B60D12368D97B002907D04A005218E2
:1030000019688C4649466244033A51709A7B002AFB
:1030100001D14A469A734A46DA734B46E168013B4E
:10302000CA5C0132CA545B4623616368BFF35F8F99
:103030005A461A6085F3108883E7002300229846D9
:10304000002306920793002300209A46A6E7002952
:1030500001D1002897D10021604600F0AFFC434623
:103060001A685B680692079343469B689A464346F4
:10307000DB689846E3684B44013B1B7808931B02CE
:1030800003432361002089E72369002BB2D0069A0D
:10309000079B921BBB41002B15DB59460491012174
:1030A0000391494602914146019151462000009109
:1030B000FFF7B8FEB7E700F079FA32003B001218CC
:1030C0004B41002BE9DA0122034B5242E5E7C046AF
:1030D000A8250020FFFFFF0FFFFFFF7F10B5144C56
:1030E0006368002B04D00A211248FFF72BFE10BDA5
:1030F0002300114A1021206800F07AFB032000F021
:1031000049FA032000F022FB03200C4900F068FA82
:10311000FFF742FB0A4B9C4603232375D0231B0673
:103120001B6860446375074B80006060DC60DAE711
:10313000BC0E0020C4250020C12D0010252F00103A
:1031400040000034A825002000487047BC0E002035
:10315000F0B557464E464546DE46E0B585B001938C
:1031600010AB1B780600039300239A469846009202
:103170007268EFF3108972B61368002BFCD0BFF3AE
:103180005F8F3568AC7B002C49D067002B683F19F6
:10319000033FDB195A78AA73002A00D1EA73B16899
:1031A000484A8C4600980199A218120162441060A6
:1031B00051600E9991600F99D16042469A705A7091
:1031C0001A706B7B9B46002B45D022001900A86823
:1031D0006B6898472A68002830D05B4658465B00E9
:1031E0005B44D719033BB870D118D35C002B00D0D7
:1031F0007B705B460C706B735C452DD0F3681B19BC
:10320000013B18787368BFF35F8F42461A6089F3F9
:1032100010885346002B2CD10002204307E073682E
:10322000BFF35F8F1C6089F310880120404205B016
:10323000F0BCBB46B246A946A046F0BD5B465B006B
:103240005B44033BD3189C70D119D25D002A00D097
:103250005A705B460B706C73307D009A019B00F0D6
:1032600005FA82460028C9D02100306800F028FC09
:10327000C4E7039B002B23D00E9B00200F99984797
:10328000030004000D000B431AD000290ADA009A4B
:10329000019B121BAB4100920193002B0ADB039BA5
:1032A0009A4665E700F082F924184D410094019593
:1032B000002DF4DA0123044C5B4200930194EEE705
:1032C0000020B4E7FFFFFF0FFFFFFF7F70B54268EC
:1032D0000400EFF3108572B61368002BFCD0BFF327
:1032E0005F8F2068CEB2437BB3420AD0FF230B40EE
:1032F0005A00D318026894466344033B9B78002B22
:1033000013D0E268FF2394460B406344013B0A0A52
:103310001978D2B291420ED000206368BFF35F8F5C
:1033200000221A6085F3108870BD22698A42F3D1A9
:1033300000202361F1E7310000F0C2FBEDE7C04659
:10334000407D7047F0B504000D0006267642F71761
:10335000C64636196F4100B584B08F4214D811D0DB
:1033600000F024F932003B00121A8B41002B15DCCF
:10337000002B3ED02000290000F022F904B080BCD0
:10338000B846F0BD8642EBD90026002700F00EF9C2
:1033900032003B00121A8B41002BE9DD002302931F
:1033A0000193154B3200009314483B00FFF7D0FE09
:1033B0000028DFDB00239846BC46114A114F7B6A88
:1033C0009C4504D8B96A8E42D4D99C45D2D11168A3
:1033D000EFF3108072B60B68002BFCD0BFF35F8F49
:1033E0001368BFF35F8F4146196080F3108820BFD8
:1033F000E5E7002ABED0D1E7F52D0010BC0E002075
:10340000C42500200040054070B504000D0000F008
:10341000CDF800196941002902DBFFF793FF70BD69
:10342000012001494042F8E7FFFFFF7F70B5060029
:1034300000F0BCF8FA2204000D0000233000002147
:10344000920003F0C9FE00196941002902DBFFF771
:1034500079FF70BD012001494042F8E7FFFFFF7F7F
:1034600070B5EFF3058305000C0084B0002B0AD083
:10347000164A0020536A9C4203D8926A0130AA423D
:103480001FD304B070BD124E02930193114B020082
:10349000009330000B00FFF75BFE011EE8DD20BF4C
:1034A0003000FFF713FF094B0020596A8C42E8D81F
:1034B0009B6A0130AB42E4D2641A631E9C41E0B2C5
:1034C000DFE7E41A631E9C41E0B2DAE70040054002
:1034D000BC0E0020F52D0010F0B5EFF30582D646A6
:1034E0004F4646461000C0B51038EFF3108872B64C
:1034F000214C2368002BFCD0BFF35F8F0123190000
:1035000081401E4D1F006963AA461D4D29601D4D57
:103510002E78AC463500C5402F402B4209D1BFF371
:103520005F8F276088F31088E0BCBA46B146A84692
:10353000F0BD5346144D5F6A83005D59AF420ED310
:10354000124A8E439B5862461670BFF35F8F00226B
:10355000226088F31088002BE6D09847E4E70C4BF4
:1035600092009C46624413681360BFF35F8F002390
:10357000236088F31088D7E7280100D00040054079
:103580003C700540F9250020D0250020D01F0020E8
:10359000D03F054010B50100024A0348FFF77EF80E
:1035A00010BDC04634DB0010F4250020034B596ADF
:1035B0000A00986A596A8A42FAD170470040054069
:1035C000064A536A9942FCD807D1044B02E05A6A72
:1035D000914202D19A6A8242F9D370470040054075
:1035E00070B504000D00EFF3108672B61A4A136826
:1035F000002BFCD0BFF35F8F002D1BD02000FFF706
:1036000023F9164981420AD02000FFF725F901214C
:103610002000FFF7DDF80123A340114A1360114B8E
:10362000A400E550BFF35F8F00220B4B1A6086F3B6
:10363000108870BD0B4BA200D5500122A2400A4950
:1036400020000B7893430B700449FFF723FA002105
:103650002000FFF7BDF8E5E7280100D0D9340010BD
:1036600038600540D01F0020F9250020F0B54F46F6
:10367000D6464646C0B507002F4C616A0D00A66AC3
:10368000616AA942FAD18B4208D805D00120E0BC7A
:10369000BA46B146A846F0BDB242F7D9EFF3108A58
:1036A00072B6264801680029FCD0BFF35F8F012560
:1036B000BD402349204C8846097889462943C9B230
:1036C0008C46414660460870391D1E488900656376
:1036D0000A51B9000B50216A0020294219D0616AB1
:1036E0000800A66A616A8142FAD18B4219D801D1D9
:1036F000B24216D8CC451DD00F4B1F201D625D6312
:1037000001230740BB40104A1E38136043464A4617
:103710001A70BFF35F8F0022084B1A608AF310887B
:10372000B5E70020BFF35F8F0022044B1A608AF3D5
:103730001088ACE70120ECE700400540280100D0EC
:10374000F9250020D025002080E200E0EFF3108C66
:1037500072B60A490B68002BFCD0BFF35F8F0123C0
:103760008340074A0748136202789A430270BFF306
:103770005F8F00230B608CF310887047280100D006
:1037800000400540F925002070B505001400160022
:10379000002915D00C00002A12D080686B68984769
:1037A000296800280ED073009B196200033B121990
:1037B000CB18033A9C7088188A5C002A15D10670D1
:1037C000200070BD63001B197200033B9219CB18D7
:1037D000033A9E7088188A5C002A02D10470340073
:1037E000EEE75A7004703400EAE75A700670E7E7B3
:1037F00030B583600023CCB243730133047342605D
:103800008373C4730D000068012C06D9421C013378
:10381000DBB2137003329C42F9D1FF2129404B00E7
:103820005918002340180338437030BDF8B5CE4610
:10383000474606000C0080B5002907D04D000368FC
:103840006D18033D5A195778002F04D12000C0BCD1
:10385000B946B046F8BD7900C919033988464344D2
:103860005978894600215970517073683A002100D7
:10387000806898473368002814D042469A1894709C
:1038800059195B5D002B00D053700F70270049461B
:103890003000FFF7CBFF390002003000FFF774FF64
:1038A0000400D3E7424641465D19AF709A185B5C4D
:1038B000002B00D06B701470E9E7C046F0B5574696
:1038C0004546DE464E46E0B50D006B0001685B19CB
:1038D000DF1E0400C85D83B00192CA19002850D0D1
:1038E00043001B18033BCB185E78B446002E1AD158
:1038F000019E002E42D0E67B002E04D073009B195F
:10390000CB18033B5D70A37B002B00D1A573E5733F
:1039100000282FD10023537003B0F0BCBB46B24641
:10392000A946A046F0BD72006244033A89184A785D
:10393000904600224A7091465A70010032002000E1
:10394000FFF722FF43468246002B07D05B00216829
:103950004344033BCB185A78002A16D142465146BD
:103960002000FFF711FF2168019BCA19002BC2D16B
:103970000028CFD043001B18033BCB1800219970BF
:10398000C8E7019B002BB6D1C4E75000801803386C
:1039900009184878834648464870587041462000C8
:1039A000FFF7F2FE594680462000FFF73FFF4146F1
:1039B00002002000FFF7E8FE8046CFE7F0B557464B
:1039C0004546DE464E46E0B583B00191457B040096
:1039D0006B0000685B19DF1EC15DC219002952D05F
:1039E0004B005B18033BC3185E78B446002E1CD115
:1039F000019E002E44D0E67B002E04D073009B195C
:103A0000C318033B5D70A37B002B00D1A573E57346
:103A1000002931D1002328005370617303B0F0BC3A
:103A2000BB46B246A946A046F0BD72006244033AC6
:103A30008018427890460022427091465A702000C9
:103A40003200FFF7A1FE43468246002B07D05B0001
:103A500021684344033BCB185A78002A17D14246C9
:103A600051462000FFF790FE019B01002068C2191B
:103A7000002BC0D10029CDD04B005B18033BC318ED
:103A800000209870C6E7019B002BB4D1C2E750001C
:103A9000801803380918487883464846487058709B
:103AA00041462000FFF770FE594680462000FFF790
:103AB000BDFE414602002000FFF766FE8046CEE7CD
:103AC00070B5040000292CD0437B8B422ED00568B2
:103AD00048004018033828188278002A21D0530063
:103AE0009B18033BEA5CEE188A4202D11BE0002AD5
:103AF00008D053009B18033BEB185A788A42F6D142
:103B000042785A7000230122837043702000FFF72F
:103B1000D5FE617B02002000FFF736FE60730120B6
:103B200000E0002070BD43783370EBE701221900FC
:103B3000FFF7C4FE60730120F4E7C04630B50C20E7
:103B400083B000F0B7F9FEF78BFD00280ED0944B40
:103B5000944A1A605A609A60DA601A615A619A61EE
:103B6000DA611A62904A5A6203B030BD8F4CA06786
:103B700000F0F4F901228E4B1A60636C012BFCD12A
:103B800003228C4B1A60894A936B012BFCD10133C1
:103B90000121894A89480093043300F033F9052351
:103BA000874A00930121874800F02CF9864B5A6818
:103BB000FF2A02D8802252005A608022784C7D4B26
:103BC00021691201804D1A60002905D0606901F059
:103BD000D3FD01300138FDD1E0217B4B02201A6872
:103BE0001140802252012A43116019684840032184
:103BF0000140116004219A681142FCD0802280218A
:103C000092012A4309011160802252005A606F4BD1
:103C100023616F4B5968FF2900D85A600321644A19
:103C20006B4B116002399A681142FCD0E0201A688F
:103C30001040802252011A43106018684840032146
:103C400001400220116062498A681042FCD0802243
:103C500092011343802212011A6080225D4B5200B0
:103C60004A6063615C4B5968FF2900D85A60802222
:103C70005A4BE1691201584D1A60002905D060695C
:103C800001F07AFD01300138FDD1E02252490B6884
:103C90001A4080235B012B431A60802380229B0102
:103CA0002B4312011A6080223E4B52004A60E361AE
:103CB0004B4B5968FF2900D85A608022494B216A32
:103CC0001201474D1A60002905D0606901F054FDCA
:103CD00001300138FDD1E02241490B681A408023B0
:103CE0005B012B431A60802380229B012B4312012E
:103CF0001A60802380225B004B602A4BD202236231
:103D0000394B5968914200D25A608022374B616A20
:103D10001201354D1A60002905D0606901F02CFDB3
:103D200001300138FDD1E0222F490B681A40802371
:103D30005B012B431A60802380229B012B431201DD
:103D40001A608023DB024B60174B6362284B5A6872
:103D5000FF2A02D8802252005A608022254BA16996
:103D60001201234D1A60002905D0606901F004FD9D
:103D700001300138FDD1E0221D490B681A40802333
:103D80005B012B431A60802380229B012B4312018D
:103D90001A6080235B004B600E4BA361E4E6C046D3
:103DA000EC200020006CDC021BB70000008000400B
:103DB0003CB0004030B00040002F68590080024005
:103DC000008C864700C0024030800040001BB700D6
:103DD0003C800040405973075480004054B000407C
:103DE0006080004060B000406C8000406CB00040DB
:103DF0004880004048B00040014B8000C0587047E8
:103E0000EC200020F0B5C646040000B50C2090461A
:103E10001F000E0001F0B0FC4101091A8D01691A62
:103E2000C90009188901404601F0A6FC069B3F0421
:103E30001A0323681743002B22DB1A4B1A4DE21892
:103E400053425A4180235B019C461203174B624444
:103E50001A60174B1A601100AB689943FBD1C0225E
:103E6000231D92011A4321232660A060136023685A
:103E7000002BFCDA0823E760136080BCB846F0BD75
:103E80003F2322681340B342D7D1A3681B051B0D03
:103E90008342D2D1EE22E368D2021340BB42CCD19E
:103EA000EBE7C0460040FDBF00C0004000E000401E
:103EB00000F000408023024A9B000343D362704716
:103EC0000080054010B5140080221B4BD2051A60FB
:103ED00000281AD00123194A1843194BDA61194AEC
:103EE00042401A62596298628022134BD2051A60CE
:103EF0001549164A1160E022D2041A60002C07D13D
:103F00008022134B12061A6010BD0D4BD861EBE7EF
:103F100063011B1B9A008023121912015B049A4251
:103F200000D30C4A0C4B1A60054B5A608022084B98
:103F3000D2051A60E8E7C04600B00540D3C007B01C
:103F4000008005402D3FF84FFCFF01000820014094
:103F500000A00540FFFFFF0098250020AA23064A85
:103F60001B0113602F230549D360054B196053686B
:103F7000002BFCDA7047C0460040024000B0FA0057
:103F8000006002402C4B2D4A70B51A602C4A2D4B14
:103F90002D491A6014008B689C43FBD12B4D2C4E8D
:103FA000B54208D2013E761BB60808CD98472300DB
:103FB0000134B342F9D1FFF7C1FD264A214B1A6003
:103FC000214A9368DB43DB01DD09002BF9D1402254
:103FD000214B224C224E9A675A671A67DA66B4421E
:103FE00008D223682000002B20D00834FEF7C0FE42
:103FF000B442F6D31B4E1C4CC022A168300003F023
:104000000BFAA660FEF7BAFBFEF776FEFFF766F83E
:10401000164C174EB44208D2013E361BB60808CCE7
:1040200098472B0001359E42F9D170BD0834FEF748
:1040300091FEB442D5D3DDE700E00040BFCDFBFEEA
:10404000FE7F3C0000F0004000C00040A8170020A8
:10405000B8170020FFFFFF0100F001409817002073
:10406000A81700200000002000ED00E0B817002095
:10407000C017002000BEFDE7094A030010680028B1
:1040800005D00849C3188B4207D81360704706480B
:104090000449C31810608B42F7D901204042F5E76C
:1040A0008C21002000000420FC25002010B5FFF723
:1040B000E1FFC0460FB400B5084883B003F010FB21
:1040C000049B002B07D005A91800019101F0DAFA32
:1040D000034803F005FB0120FFF7CCFF58DB00107D
:1040E00098B3001010B50148FFF7E4FF68DB00103B
:1040F0007047C046F8B557464E464546DE46E0B5E1
:1041000099460A9B07009A460D9B884693461500E0
:104110000B9E9B0710D10C9B9E420DD29D1B140041
:104120000E005D4422004B46013431002020B84788
:10413000A542F7D1B0460B9E002E27D044467519F4
:104140005346AA1B013E985D21004B46B847002EFE
:10415000F6D123002C0098460D9B9B070FD55B469C
:10416000E51A0C9BAB420AD94646984622004B46BC
:10417000310020200135B8470134A845F6D8200089
:10418000F0BCBB46B246A946A046F8BD2C00E3E70A
:10419000F0B54F464646D646C0B584B098460EABFD
:1041A0001B78129F994694460D9C109B119EBA074E
:1041B00025D4002E4BD19C4200D3BFE001223A40CF
:1041C00092461F2C00D9B8E00C9A551E302201E00F
:1041D000202C03D001342A55A342F9D85246002A94
:1041E0000DD0A6420BD9202C44D00C9A551E30225B
:1041F00001E0202C3ED001342A55B442F9D1FA0610
:104200004DD57A053FD4002C39D10F9B102B00D10E
:1042100079E00F9B022B00D18AE030230C9A012415
:1042200013704B46002B3FD02D230C9A13550134AD
:104230000C9B624600930397434602960194FFF756
:1042400059FF04B0E0BCBA46B146A846F0BD012211
:1042500015003D40AA463A422FD04A46002A02D1D4
:104260000C323A4200D0013E9C42BAD21F2CABD94C
:10427000202E27D92024FA06DAD57A0503D4A342C2
:104280002DD0A6422BD00F9B102B32D0022B20D04A
:10429000202CCDD030220C9B1B191A700134202CFD
:1042A000C6D04B46002BBFD17B070DD43B07BFD5F3
:1042B00020230C9A13550134BAE79C429FD21F2C3D
:1042C00000D881E720249AE72B230C9A1355013458
:1042D000AEE7202CACD00C9B1B1901343AE0631ED6
:1042E000012C92D00F9A102A2AD0022A2FD01C001B
:1042F000D0E7BB060ED4202C9AD00C9B1A1901349F
:1043000078231370C4E7BB060DD478230C9A0124DC
:104310001370BFE7202C00D18AE758220C9B1B1991
:104320001A700134B4E758230C9A01241370B1E7D2
:104330000C9A603301241370ACE7202400265EE75A
:10434000023CBA06E9D40C9A12191C00D8E70C9A60
:104350009246534462221A709AE7C04610B500286C
:1043600000D110BD03F070F9FBE7C0460B0010B59B
:10437000002802D049681B68984710BDF0B5DE469A
:1043800057464E464546E0B59BB09B46249B894622
:104390009846259B0B900C924046424619009A463F
:1043A00001F0BBFC002800D0D8E001224046514675
:1043B000774B524201F0ACFC002800D0CEE0012245
:1043C00040465146734B524201F08CFC002800D00D
:1043D000C4E0002200234046514601F083FC00283F
:1043E00000D0B9E1424653460A9209938023289AA5
:1043F000DB001A400E92289A1A4201D10623269316
:104400000A9A099B1600134300D0C7E0289B002599
:1044100000261B0500D49BE100230D93269A0D9BDB
:104420009A4200DC9FE1D01A431E26938023289AEB
:10443000DB001A430023002728920D93279B0024BA
:10444000BB4200D9DC1B0223289A1A400E92289AFC
:10445000134203D07B427B415B421C400D9B002BEF
:1044600007D00A9809992A00330001F0D2FB0A907C
:104470000991002200234046514601F033FC0028F8
:1044800005D0802000068446099961440991289A44
:10449000414B0B9D13400493269B0A9A0293099B60
:1044A00003940092019349465B4628000C9A00F061
:1044B0008BF90400002F62D0289B220098061F234E
:1044C000C0179843631C984649465B466530A84729
:1044D0000D9B0025DA179C18DB0F9A465440013FCC
:1044E00001E0202D13D00AAA94461F232000634424
:1044F0000A2101355E1901F03FF930313170200099
:104500000A2101F039F926000400092EE9D8052313
:104510000693002304930A330393534605970B9F96
:10452000029312AB009342465B4649463800019520
:10453000FFF72EFE0E9B0400002B20D00C9BC51A0B
:10454000279BAB421BD91E0022005B464946202018
:104550000135B8470134AE42F6D810E0289B4246F8
:104560000493279B49460393269B0B98029353463B
:10457000009201935B460C9A00F026F9040020009B
:104580001BB0F0BCBB46B246A946A046F0BDC04633
:10459000FFFFEF7FFFFFEFFFFFF7FFFF734B099F69
:1045A0009C467800400D604401F0CAFB704A714B94
:1045B00001F04DFB704A714B01F022FB3B03704A46
:1045C0001B0B1A4304000D00300011006D4B00223C
:1045D00001F00DFB6C4A6D4B01F039FB02000B0042
:1045E0002000290001F00CFB01F0C2FB0D9001F04E
:1045F000A7FB674A674B04000D0001F028FB00226F
:10460000654B01F0FDFA01F0B3FB644A0600644B10
:104610002000290001F01BFB040030000D000F9664
:1046200001F08EFB5F4A604B01F011FB02000B00B2
:104630002000290001F0DBFA02000B0006000F0049
:1046400001F005FB320004000D003B003000390092
:1046500001F0D6FA002210901191544B200029004D
:1046600001F0D7FA0022524B01F0CAFA02000B0007
:104670002000290001F0CDFA00224E4B01F0C0FAD3
:1046800002000B002000290001F0C3FA0D00802178
:10469000040032003B000020C90501F0A8FA020026
:1046A0000B002000290001F0ABFA02000B0010986B
:1046B000119901F0AEFA0022314B01F0A1FA3E4B04
:1046C0000F9C9C4664440022230501F0C0FA0500BB
:1046D0000E0002000B000A98099901F003FB002864
:1046E0000AD00D9B2800013B31000D930022304B76
:1046F00001F08FFA05000E00C6270D992B006331DB
:104700008F42BF4128997F420437090500D495E6BE
:10471000334300D182E6099C284A2100284B0A989D
:1047200001F0EEFA002808D000222100254B0A985B
:1047300001F0D8FA002800D070E6269B002B00D1AB
:104740007CE60E9B5A1E9341269AD31A269375E651
:10475000002304270D9371E643460A9380231B062A
:104760005344099342E6002326935FE601FCFFFFD2
:10477000FB799F501344D33FB3C8608B288AC63F50
:104780000000F03F0000F83F61436F63A787D23F0E
:1047900071A379094F930A400000E03F1655B5BB5D
:1047A000B16B0240EF39FAFE422EE63F00002C408A
:1047B0000000244000001840FF0300002D431CEBC4
:1047C000E2361A3F80842E41F0B54E46DE4657460B
:1047D0004546E0B597B09946209E219F229B83468F
:1047E000984607910C923B0032003000390001F0EE
:1047F00094FA002800D0A9E1012230003900CA4B08
:10480000524201F06FFA002800D0E1E001223000AE
:104810003900C64B524201F07BFA002800D0B7E0C5
:10482000002230003900C24B01F072FA002800D09B
:1048300099E0002230003900BE4B01F053FA002805
:1048400000D090E0002200233000390001F04AFA45
:10485000002800D0B1E000230D93249B5B0501D418
:104860000623984608AB9C46172200243023414675
:10487000624404E0013413550139202C01D0092988
:10488000F8D888463000390001F072FA4346DA0061
:10489000A94B05009B181A685B680892099301F000
:1048A0004FFA02000B003000390001F0A0F9089A1D
:1048B000099B01F0CCF90A900B9101F07DFA824638
:1048C00001F03AFA02000B000A980B9901F08FF9F7
:1048D00000229A4B0A900B9101F01AFA002800D19D
:1048E000C0E001239C46E244504601F025FA020054
:1048F0000B000898099901F0FBF9002802D0002369
:104900009A4601354346002B6AD008AB17269C46D1
:1049100008956644554614E001235B4243440A214E
:1049200028009A4600F028FF0134303137193970D9
:1049300028000A2100F020FF092D00D8D0E0D04641
:104940000500202CE8D10EAB98460323249A13408F
:10495000012B00D196E02023249A01930392239AFD
:10496000434602921EE0249B58460493239B0096E4
:104970000197039343460C9A029307994B46FFF71E
:10498000FDFC17B0F0BCBB46B246A946A046F0BD40
:10499000249B5B070ED40322694B24990192039157
:1049A00023990291009358464B460C9A0799FFF7BA
:1049B000A1FBE6E70422634BEFE73B003200002057
:1049C000002101F014F9012306000F000D9344E7C4
:1049D000249B0393239B0293042301935A4BE1E707
:1049E000280001F0ADF902000B003000390001F0A1
:1049F000FEF8524B002206000F0001F073F90EABD7
:104A0000984600280AD10022300039004B4B01F0B3
:104A10007FF9002802D1EB0700D50135202C94D076
:104A200008AA94461723280063440A2101341E195A
:104A300000F07AFE3031280031700A2100F074FE57
:104A4000051EEBD10323249A1340012B1BD0202CED
:104A500000D180E70D9B002B35D02D224146631CF1
:104A60000A5579E700220A980B99344B01F03AF97C
:104A7000002800D046E75346002B51D101239C4625
:104A8000E2443FE72024239B002BE0D00D9B002B2A
:104A900003D1249A0C33134202D0239B013B23936E
:104AA000239BA342D3D908AB9C46172230236244F0
:104AB000202C00D14FE72399013413558C42C6D0E6
:104AC000202CF8D147E7249B5B0724D4249A2300A9
:104AD000120700D440E72022414601330A553BE744
:104AE0005746089D202C00D12DE72200302140465A
:104AF000002F09D00132B154202A00D123E7D3433B
:104B00001B191B18002BF5D10EAB98462E234146DE
:104B1000541C8B5482E72B224146631C0A551BE729
:104B2000DB0700D4EEE6A9E7FFFFEFFFFFFFEF7F13
:104B300065CDCD4165CDCDC170DD00100000E03FF9
:104B400074DB001078DB001084DB0010249B0393DF
:104B5000239B029303230193004B23E780DB001088
:104B6000F0B5DE464E4657464546E0B59FB01C00C0
:104B7000289B91460993C94AC94B8B4608901A60F5
:104B8000002900D118E2002320789A46002800D19D
:104B90001AE226001D005C460AE02A006F1C4B4604
:104BA000089D2100A8473D0001363078002870D0CC
:104BB0002528F2D110239B46083B9A46043B984691
:104BC000023B00219C46721C107816000300203B1B
:104BD000DBB2102B03D8B34F9B00FB589F4603005A
:104BE000303B092B32D900230A932A2868D00023AE
:104BF00098462E283ED00300683BDBB2122B1CD80F
:104C0000A94A9B00D3589F46012301321943DBE791
:104C1000634601321943D7E7434601321943D3E7CC
:104C20005B4601321943CFE7534601321943CBE7C4
:104C300080235B007078194301360300253BDBB20B
:104C4000532BAAD8994A9B00D3589F4600270300AC
:104C5000B800C01901364000C018337830381A0047
:104C6000303A0700092AF3D90A9018000023984621
:104C70002E28C0D180237078DB0019430300303B1D
:104C8000721C092B00D8A1E12A2800D1B2E116003C
:104C9000B1E7A346AA462C00D14503D801235B42C5
:104CA0004B449A464B46524659460020089DA84719
:104CB00020001FB0F0BCBB46B246A946A046F0BDDE
:104CC000099B40CB0A96002E03DB50780993561CB3
:104CD0008DE72838014370420A9009935078561C9A
:104CE00085E7782800D1DFE1582800D14CE26F2811
:104CF00000D14FE3622801D100F030FC10230A00FC
:104D00009A430B92692801D000F0A9FC0A230C9366
:104D10004B0500D5D0E10B9A802311009B00194070
:104D20008B461A4200D0A1E2802311005B0019409B
:104D30008A461A4200D0B6E313005B0600D5EDE2C6
:104D4000130009991B0601D400F076FC08C91BB2B8
:104D5000D8171A18424092B209919346DA0F12926C
:104D6000002B09D1802310220B99DB000B409143CB
:104D70000B91002B00D0E4E20B9A6123920600D540
:104D800041230EA91F228C46DBB262440A3B5F46D8
:104D90001395A34655460C9CB2460D9316000AE0A7
:104DA0003033DBB201357355A74200D2EDE2202D3E
:104DB00000D1EAE207002100380000F0DDFCCBB2B0
:104DC0000929EDD90D9A94466344DBB2EAE78023C2
:104DD0009B007078194301362FE77078682800D15E
:104DE000CDE180230136194327E770786C2800D184
:104DF000BFE180235B00194301361EE7462800D13E
:104E00009BE10722099B0491073393430A9A1900F7
:104E10000392424602920CC90898009201930991AC
:104E20002A004B462100FFF7CFFC01360500BCE607
:104E30002A006F1C4B46089D21002520A8470136FB
:104E40003D00B2E68B0700D4ADE1099B2A009A46EB
:104E50006B1C9846534601CB21009A46089F4B464F
:104E6000C0B2B8470A9B9C466544012B00D886E235
:104E7000089B4746B04626004C4699463A00230018
:104E8000013731002020C847AF42F7D1A146534631
:104E9000340046460993013687E6C046614B001050
:104EA000942500208CDB0010D0DB00101CDC0010EF
:104EB000099B04CB9B4643460992002B00D1C6E0D8
:104EC00013789C46002B00D1BDE34346013B099A71
:104ED0000133D0180A9F130001E0834203D05A78AF
:104EE0000133002AF9D1099A0A979B1A0B93802360
:104EF0000A00DB001A400C92194204D00B9B434578
:104F000001D943460B9302231A000A400D920B422B
:104F100000D187E16046002800D168E10C9B002B9E
:104F200000D10DE1A844C246099B57465B1B984639
:104F3000089BB2462A0026004C46994609E0230009
:104F40003100551CC8474346585D002800D126E172
:104F50002A009742F3D1A1463D00340056460D9BEE
:104F6000002B00D043E15B46013609931DE6099B07
:104F70001A0008CA9246002B48D0212211438B46C2
:104F80000EA884461F216144099500220F27A446DC
:104F90000D0002E0202A0CD00B003C001C40200039
:104FA0003730092C00D807380132A85419090F2BC3
:104FB000F0D86446099D32E0DC4B2078089300234A
:104FC0009A46002800D0E4E5002465E64346060042
:104FD0000A9F9800C018013240008019167803001B
:104FE00030003038303B0928F3D93000984616009D
:104FF0000A9700E6099B023604CB9046D24340460E
:10500000D2171040804609933078F4E5102208004A
:10501000904311321043834600224905B0D55B46C8
:105020000693082305934346049310230393002318
:10503000029316AB019200932A004B462100089878
:10504000FFF7A6F85346050001360993ADE513783E
:105050009C46002B00D1F7E202235B4237E7202376
:1050600002009A43472A04D180231B0119430223DB
:105070009843452801D1202319430722099B049115
:10508000073393430A9A19000392424602920CC9CD
:1050900008980092019309912A004B462100FFF7DE
:1050A0006DF90136050080E510230C930C230A00EE
:1050B0009A430B924B0503D501230B9A9A430B920B
:1050C000692800D127E6642800D124E60B9A8023C2
:1050D00011009B0019408B461A4200D066E18023E4
:1050E00011005B0019408A461A4200D039E21300D1
:1050F0005B0600D53CE113001B0600D4A6E2099B29
:1051000004CB1204120C934609935B46002B00D08B
:105110009AE10B9A1033110099430B91520500D478
:1051200092E100239A460B9B06930A9B0593434604
:1051300004930C9B039300230CE12023194360E6A6
:10514000099B0A9A5B1B98464B4691461F00B24644
:105150002600089C2A003B003100A0474346013549
:10516000585D0028F6D14A463400B94656460A92A0
:10517000F5E6C0239B00B078194302365DE5C023F5
:10518000B0781943023658E50C230A009A431433C9
:105190001A43103B0B920C934B058DD496E7A14616
:1051A00034005646DBE60A9A012A00D853E26B1E09
:1051B0009F18089BB04626004C4699462A002300BB
:1051C000013531002020C847BD42F7D1A146340047
:1051D0004646099B3A0001CB210098467D1C4B4670
:1051E000089FC0B2B847434601360993DDE40B9BE4
:1051F0000A9AA8469A4200D8B5E694466544ED1A44
:10520000089B4746B04626004C4699463A00230084
:10521000013731002020C847AF42F7D1A146340002
:105220004646A0E60B9A0A99531C914200D814E214
:105230004B199B1A1F00089BB24626004C46994604
:105240002A002300013531002020C847BD42F7D194
:105250000A9BA14601330B93099B34001B785646E9
:105260009C466046002800D058E67CE60722099B51
:1052700007339343013294469C4462465F68099227
:105280001A68FB171093119310981199030053405B
:105290000E930B007B400F9394460E9A0F9B121AAD
:1052A0008B410E920F93FB0F6246129300233A43F9
:1052B0009B463DD00B9A6123920600D541230022E4
:1052C000DBB20EA90A3B8C4692460D9343461F3231
:1052D00062441395159655460E9E0F9FA246904622
:1052E0000C9C14930CE03032D2B2434601355A552F
:1052F000BB4500D18AE1202D00D18AE106000F00D4
:10530000220000233000390000F074FAD2B2092ADA
:10531000E9D90D9B9C466244D2B2E6E7FF23099986
:1053200004C913401A00099117E5C046F140001066
:105330000B9A1033110099430B915205BAD50023F3
:105340009A460B9B06930A9B0593434604930C9B3A
:105350000393129B02935346019316AB2A000093CA
:1053600021004B460898FEF713FF013605001CE4A8
:10537000FF22099B02CB11408B460993C5E6534699
:10538000454609930136FFF710FC56465C46AA468F
:10539000139DD6E708230C930B910B99642800D03A
:1053A00084E60B9B5B0500D586E6B4E40722099BE7
:1053B00007339343013294469C44624609921A682B
:1053C0005B6810009B4613005A46134307D10B9AA3
:1053D0001033110099430B91520500D5A1E60B9AA9
:1053E0006123920600D541230022DBB20EA90A3BBD
:1053F0008C4692460D9343461F3262445F46129597
:10540000A34655460400B24690460C9E13930DE009
:105410003032D2B2434601355A550023BB4200D147
:1054200000E1202D00D100E104000F003200002334
:105430002000390000F0DEF9D2B2092AE8D90D9B2C
:105440009C466244D2B2E5E70B9A6123920600D5EE
:105450004123DBB20EA90A3B1F228C460D93230089
:1054600062445C461295170055469B46B2460C9E18
:1054700008E03033DBB201357B55B4420ED3202D2A
:105480000CD004003100200000F076F9CBB20929DD
:10549000EFD90D9A94466344DBB2ECE756465C467E
:1054A000AA46129D3FE6099B1A0008CAD917139213
:1054B0005A184A409246DA0F1292002B08D18023E4
:1054C00010220B99DB000B4091430B91002B2BD149
:1054D0000B9A6123920600D541230EAA1F279446FA
:1054E000DBB20A3B0D9567445D460993A3465446DB
:1054F000B2460C9E08E03033DBB201357B55B44236
:105500000ED3202D0CD004003100200000F034F91F
:10551000CBB20929EFD9099A94466344DBB2ECE790
:1055200056465C46AB460D9D0B9B2A0006930A9B94
:1055300021000593434604930C9B08980393129B08
:10554000013602935B46019316AB00934B46FEF780
:105550001FFE139B05000993FFF727FB02230C9303
:105560001AE7099B04CB92461293002A08D18023A4
:1055700010220B99DB000B4091430B91002B2BD198
:105580000B9A6123920600D541230EAA1F27944649
:10559000DBB20A3B0D9567445D460993A34654462A
:1055A000B2460C9E08E03033DBB201357B55B44285
:1055B0000ED3202D0CD004003100200000F0DCF8C8
:1055C000CBB20929EFD9099A94466344DBB2ECE7E0
:1055D00056465C46AB460D9D0B9B2A0006930A9BE4
:1055E00021000593434604930C9B089803930023E2
:1055F00002935B46019316AB00934B46FEF7C8FD42
:10560000129B050009930136FFF7CFFAB44200D888
:1056100071E6149B54460E960F97AA469846159E1F
:10562000139D8EE6A64200D8FBE6139B564698468D
:10563000AA465C46129D76E508C9D8171A1842405A
:105640000991FFF78AFB00230B9350E4099B04CBDD
:105650009346099359E52F00BBE50B9301E6063B02
:105660000C939AE600B585B0039101210290009356
:10567000034813004A4202A9FFF772FA05B000BDC1
:105680006D43001010B5094A0300146884B0002C63
:1056900008D0012200910648524203A9A0470120E8
:1056A00004B010BD02F01CF80020F9E7942500209A
:1056B0005D43001001480421014B1847F00E002003
:1056C000E5560010142310B50100188804331B8818
:1056D000984710BD162310B50100188802331B88A7
:1056E000984710BDF8B54746CE4680B50F1E19D075
:1056F00014239946043304000025012698464B469E
:105700001888434621681B88984701C4431E984166
:10571000013540420640AF42F1D13000C0BCB9462D
:10572000B046F8BD0126F8E7124A936F9B0815D2E0
:105730009066D166002905D0FFE7FFE7FFE7516FCC
:10574000106F704704B580210906C2175140002828
:1057500000D0C84305F028F9002104BDF0B5146E4F
:10576000556E576F166FFFF7E3FF14665566576760
:105770001667F0BD000000D0114A936F9B0813D24A
:1057800010665166002905D0FFE7FFE7FFE7516F7C
:10579000106F704704B5002801D00020C04305F009
:1057A00003F9002104BDC046F0B5146E556E576F65
:1057B000166FFFF7E5FF1466556657671667F0BD6D
:1057C000000000D094464A4A926F9208624601D285
:1057D00028E0C046F0B5464E346E756E776F366F72
:1057E00000F020F89446424A1466556657671667DB
:1057F0006246F0BD94463E4A926F9208624601D2DC
:1058000054E0C046F0B53A4E346E756E776F366F21
:1058100000F04CF89446364A14665566576716678A
:105820006246F0BD002B24DB11D000293EDA00B522
:10583000C943404200D1013100F038F8C943404229
:1058400000D10131DB43524200D1013300BD002AB7
:10585000EBD1002801D1002905D00020C90FC907CC
:1058600001D1C043410800B505F08EF800220023A5
:1058700000BD00B500290ADBDB43524200D10133F1
:1058800000F014F8C943404200D1013100BDC943C2
:10589000404200D10131DB43524200D1013300F0DC
:1058A00005F8DB43524200D1013300BD002923D16A
:1058B000002B18D1002A0CD0BC460D4F38667A66F2
:1058C00000210023FFE7FFE7FFE77A6F386F6746A5
:1058D0007047002801D00748010000B505F054F8D2
:1058E0000022002300BD02000B00002000217047B1
:1058F000000000D0FFFFFFFF002B00D0BFE0130C23
:1059000028D1002AE7D080B4114F39667A66FFE7C4
:10591000FFE730B4040C7B6F396F1B0423433B66F5
:105920007A66FFE7FFE7FFE7C04684B27B6F3D6F13
:105930001B0423433B667A66FFE7FFE7C04600236C
:105940002C042D0C7A6F386F00196941B0BC704778
:10595000000000D0F0B594460025140E01D11202CB
:105960000835140F01D112010435940F01D19200B2
:105970000235D40F01D152000135D40B0134254F2B
:105980007C66254C3C660E0C93B2FFE7FFE7FFE711
:105990003C6F6643360C7703BE467343DF0B5B04F4
:1059A000C01AB941130C7343DB18C91ACE086643F9
:1059B000360CB64493B273431F0F1B01C01AB94192
:1059C000130C73431F0B1B05C01AB941860D8F02C0
:1059D0003E436643360C092D24DB520A7243801A7B
:1059E0007703460A6643360C16235B1BDE40DF4016
:1059F000BF1964466643821B7046043506330100B6
:105A0000D940A840C01900D30131A24206D20023D8
:105A1000F0BD0000000000D0FFFFFFFF121B0130AF
:105A2000F3D3F1E709277F1BFE406446A2B272431D
:105A3000801A00D20139220C7243130C1204821A0C
:105A400099410B007046043513370100F940A84016
:105A5000801900D30131002B02D1A2420AD2F0BD3D
:105A6000013000D30131121BFAD2013BF8D1A2421E
:105A700000D2F0BD013000D30131121BF7E7F0B5C1
:105A80001C0C00D080E00CB400251C0A04D11B02C1
:105A9000160E3343120208351C0B04D11B01160FDE
:105AA0003343120104359C0B04D19B00960F334302
:105AB00092000235DC0B02D192185B4101351C00CB
:105AC000971864410134464F7C66464C3C660E0C88
:105AD000FFE7FFE7FFE7C0463C6F6643360C7703FE
